{
	"data": {
		"bytecode": {
			"linkReferences": {},
			"object": "60a060405234801561001057600080fd5b5061002d6100226100da60201b60201c565b6100e260201b60201c565b600060028190555073a7ff8d87f8692fdbe42689d84ea03881cfadca0873ffffffffffffffffffffffffffffffffffffffff1660808173ffffffffffffffffffffffffffffffffffffffff1660601b815250507313066ee900a8c4e2c9cd7ce0096adf9b907d0cff600160006101000a81548173ffffffffffffffffffffffffffffffffffffffff021916908373ffffffffffffffffffffffffffffffffffffffff1602179055506101a6565b600033905090565b60008060009054906101000a900473ffffffffffffffffffffffffffffffffffffffff169050816000806101000a81548173ffffffffffffffffffffffffffffffffffffffff021916908373ffffffffffffffffffffffffffffffffffffffff1602179055508173ffffffffffffffffffffffffffffffffffffffff168173ffffffffffffffffffffffffffffffffffffffff167f8be0079c531659141344cd1fd0a4f28419497f9722a3daafe3b4186f6b6457e060405160405180910390a35050565b60805160601c610f9a6101cb6000396000818161036e01526105ad0152610f9a6000f3fe6080604052600436106100a75760003560e01c80638dc36436116100645780638dc364361461018b578063a5e29ea4146101a2578063c6bc5182146101cb578063dda81e9a146101f6578063f2fde38b1461021f578063f56e9c6614610248576100a7565b806308551a53146100ac578063424dfa4f146100d7578063473ca96c1461011457806347ccca021461011e578063715018a6146101495780638da5cb5b14610160575b600080fd5b3480156100b857600080fd5b506100c1610271565b6040516100ce9190610c1f565b60405180910390f35b3480156100e357600080fd5b506100fe60048036038101906100f99190610ab7565b610297565b60405161010b9190610cc3565b60405180910390f35b61011c6102d9565b005b34801561012a57600080fd5b5061013361041d565b6040516101409190610cde565b60405180910390f35b34801561015557600080fd5b5061015e610443565b005b34801561016c57600080fd5b506101756104cb565b6040516101829190610c04565b60405180910390f35b34801561019757600080fd5b506101a06104f4565b005b3480156101ae57600080fd5b506101c960048036038101906101c49190610ae4565b6105ab565b005b3480156101d757600080fd5b506101e061065e565b6040516101ed9190610d39565b60405180910390f35b34801561020257600080fd5b5061021d60048036038101906102189190610b11565b610664565b005b34801561022b57600080fd5b5061024660048036038101906102419190610a5d565b6106e5565b005b34801561025457600080fd5b5061026f600480360381019061026a9190610a5d565b6107dd565b005b600560009054906101000a900473ffffffffffffffffffffffffffffffffffffffff1681565b6000816040015142106102be576001826060019015159081151581525050600190506102d4565b6000826060019015159081151581525050600090505b919050565b600360009054906101000a900473ffffffffffffffffffffffffffffffffffffffff1673ffffffffffffffffffffffffffffffffffffffff166342842e0e30336004546040518463ffffffff1660e01b815260040161033a93929190610c3a565b600060405180830381600087803b15801561035457600080fd5b505af1158015610368573d6000803e3d6000fd5b505050507f000000000000000000000000000000000000000000000000000000000000000073ffffffffffffffffffffffffffffffffffffffff1663a9059cbb33600a6040518363ffffffff1660e01b81526004016103c8929190610c71565b602060405180830381600087803b1580156103e257600080fd5b505af11580156103f6573d6000803e3d6000fd5b505050506040513d601f19601f8201168201806040525081019061041a9190610a8a565b50565b600360009054906101000a900473ffffffffffffffffffffffffffffffffffffffff1681565b61044b61089d565b73ffffffffffffffffffffffffffffffffffffffff166104696104cb565b73ffffffffffffffffffffffffffffffffffffffff16146104bf576040517f08c379a00000000000000000000000000000000000000000000000000000000081526004016104b690610d19565b60405180910390fd5b6104c960006108a5565b565b60008060009054906101000a900473ffffffffffffffffffffffffffffffffffffffff16905090565b60007fffffffffffffffffffffffffffffffffffffffffffffffffffffffffffffffff9050600360009054906101000a900473ffffffffffffffffffffffffffffffffffffffff1673ffffffffffffffffffffffffffffffffffffffff1663095ea7b330836040518363ffffffff1660e01b8152600401610576929190610c9a565b600060405180830381600087803b15801561059057600080fd5b505af11580156105a4573d6000803e3d6000fd5b5050505050565b7f000000000000000000000000000000000000000000000000000000000000000073ffffffffffffffffffffffffffffffffffffffff166323b872dd3330846040518463ffffffff1660e01b815260040161060893929190610c3a565b602060405180830381600087803b15801561062257600080fd5b505af1158015610636573d6000803e3d6000fd5b505050506040513d601f19601f8201168201806040525081019061065a9190610a8a565b5050565b60045481565b61066c61089d565b73ffffffffffffffffffffffffffffffffffffffff1661068a6104cb565b73ffffffffffffffffffffffffffffffffffffffff16146106e0576040517f08c379a00000000000000000000000000000000000000000000000000000000081526004016106d790610d19565b60405180910390fd5b505050565b6106ed61089d565b73ffffffffffffffffffffffffffffffffffffffff1661070b6104cb565b73ffffffffffffffffffffffffffffffffffffffff1614610761576040517f08c379a000000000000000000000000000000000000000000000000000000000815260040161075890610d19565b60405180910390fd5b600073ffffffffffffffffffffffffffffffffffffffff168173ffffffffffffffffffffffffffffffffffffffff1614156107d1576040517f08c379a00000000000000000000000000000000000000000000000000000000081526004016107c890610cf9565b60405180910390fd5b6107da816108a5565b50565b6107e561089d565b73ffffffffffffffffffffffffffffffffffffffff166108036104cb565b73ffffffffffffffffffffffffffffffffffffffff1614610859576040517f08c379a000000000000000000000000000000000000000000000000000000000815260040161085090610d19565b60405180910390fd5b80600160006101000a81548173ffffffffffffffffffffffffffffffffffffffff021916908373ffffffffffffffffffffffffffffffffffffffff16021790555050565b600033905090565b60008060009054906101000a900473ffffffffffffffffffffffffffffffffffffffff169050816000806101000a81548173ffffffffffffffffffffffffffffffffffffffff021916908373ffffffffffffffffffffffffffffffffffffffff1602179055508173ffffffffffffffffffffffffffffffffffffffff168173ffffffffffffffffffffffffffffffffffffffff167f8be0079c531659141344cd1fd0a4f28419497f9722a3daafe3b4186f6b6457e060405160405180910390a35050565b60008135905061097881610f1f565b92915050565b60008135905061098d81610f36565b92915050565b6000815190506109a281610f36565b92915050565b600060c082840312156109be576109bd610e8c565b5b6109c860c0610d54565b905060006109d884828501610a48565b60008301525060206109ec84828501610a48565b6020830152506040610a0084828501610a48565b6040830152506060610a148482850161097e565b6060830152506080610a2884828501610969565b60808301525060a0610a3c84828501610a48565b60a08301525092915050565b600081359050610a5781610f4d565b92915050565b600060208284031215610a7357610a72610e91565b5b6000610a8184828501610969565b91505092915050565b600060208284031215610aa057610a9f610e91565b5b6000610aae84828501610993565b91505092915050565b600060c08284031215610acd57610acc610e91565b5b6000610adb848285016109a8565b91505092915050565b600060208284031215610afa57610af9610e91565b5b6000610b0884828501610a48565b91505092915050565b600080600060608486031215610b2a57610b29610e91565b5b6000610b3886828701610a48565b9350506020610b4986828701610a48565b9250506040610b5a86828701610a48565b9150509250925092565b610b6d81610d9c565b82525050565b610b7c81610d8a565b82525050565b610b8b81610dae565b82525050565b610b9a81610de4565b82525050565b610ba981610df6565b82525050565b6000610bbc602683610d79565b9150610bc782610ea7565b604082019050919050565b6000610bdf602083610d79565b9150610bea82610ef6565b602082019050919050565b610bfe81610dda565b82525050565b6000602082019050610c196000830184610b73565b92915050565b6000602082019050610c346000830184610b64565b92915050565b6000606082019050610c4f6000830186610b73565b610c5c6020830185610b73565b610c696040830184610bf5565b949350505050565b6000604082019050610c866000830185610b73565b610c936020830184610ba0565b9392505050565b6000604082019050610caf6000830185610b73565b610cbc6020830184610bf5565b9392505050565b6000602082019050610cd86000830184610b82565b92915050565b6000602082019050610cf36000830184610b91565b92915050565b60006020820190508181036000830152610d1281610baf565b9050919050565b60006020820190508181036000830152610d3281610bd2565b9050919050565b6000602082019050610d4e6000830184610bf5565b92915050565b6000610d5e610d6f565b9050610d6a8282610e2c565b919050565b6000604051905090565b600082825260208201905092915050565b6000610d9582610dba565b9050919050565b6000610da782610dba565b9050919050565b60008115159050919050565b600073ffffffffffffffffffffffffffffffffffffffff82169050919050565b6000819050919050565b6000610def82610e08565b9050919050565b6000610e0182610dda565b9050919050565b6000610e1382610e1a565b9050919050565b6000610e2582610dba565b9050919050565b610e3582610e96565b810181811067ffffffffffffffff82111715610e5457610e53610e5d565b5b80604052505050565b7f4e487b7100000000000000000000000000000000000000000000000000000000600052604160045260246000fd5b600080fd5b600080fd5b6000601f19601f8301169050919050565b7f4f776e61626c653a206e6577206f776e657220697320746865207a65726f206160008201527f6464726573730000000000000000000000000000000000000000000000000000602082015250565b7f4f776e61626c653a2063616c6c6572206973206e6f7420746865206f776e6572600082015250565b610f2881610d8a565b8114610f3357600080fd5b50565b610f3f81610dae565b8114610f4a57600080fd5b50565b610f5681610dda565b8114610f6157600080fd5b5056fea26469706673582212206cff3e09713219b72b5c64112d848e59acd3471a66a5545beca4140912c1fe0d64736f6c63430008070033",
			"opcodes": "PUSH1 0xA0 PUSH1 0x40 MSTORE CALLVALUE DUP1 ISZERO PUSH2 0x10 JUMPI PUSH1 0x0 DUP1 REVERT JUMPDEST POP PUSH2 0x2D PUSH2 0x22 PUSH2 0xDA PUSH1 0x20 SHL PUSH1 0x20 SHR JUMP JUMPDEST PUSH2 0xE2 PUSH1 0x20 SHL PUSH1 0x20 SHR JUMP JUMPDEST PUSH1 0x0 PUSH1 0x2 DUP2 SWAP1 SSTORE POP PUSH20 0xA7FF8D87F8692FDBE42689D84EA03881CFADCA08 PUSH20 0xFFFFFFFFFFFFFFFFFFFFFFFFFFFFFFFFFFFFFFFF AND PUSH1 0x80 DUP2 PUSH20 0xFFFFFFFFFFFFFFFFFFFFFFFFFFFFFFFFFFFFFFFF AND PUSH1 0x60 SHL DUP2 MSTORE POP POP PUSH20 0x13066EE900A8C4E2C9CD7CE0096ADF9B907D0CFF PUSH1 0x1 PUSH1 0x0 PUSH2 0x100 EXP DUP2 SLOAD DUP2 PUSH20 0xFFFFFFFFFFFFFFFFFFFFFFFFFFFFFFFFFFFFFFFF MUL NOT AND SWAP1 DUP4 PUSH20 0xFFFFFFFFFFFFFFFFFFFFFFFFFFFFFFFFFFFFFFFF AND MUL OR SWAP1 SSTORE POP PUSH2 0x1A6 JUMP JUMPDEST PUSH1 0x0 CALLER SWAP1 POP SWAP1 JUMP JUMPDEST PUSH1 0x0 DUP1 PUSH1 0x0 SWAP1 SLOAD SWAP1 PUSH2 0x100 EXP SWAP1 DIV PUSH20 0xFFFFFFFFFFFFFFFFFFFFFFFFFFFFFFFFFFFFFFFF AND SWAP1 POP DUP2 PUSH1 0x0 DUP1 PUSH2 0x100 EXP DUP2 SLOAD DUP2 PUSH20 0xFFFFFFFFFFFFFFFFFFFFFFFFFFFFFFFFFFFFFFFF MUL NOT AND SWAP1 DUP4 PUSH20 0xFFFFFFFFFFFFFFFFFFFFFFFFFFFFFFFFFFFFFFFF AND MUL OR SWAP1 SSTORE POP DUP2 PUSH20 0xFFFFFFFFFFFFFFFFFFFFFFFFFFFFFFFFFFFFFFFF AND DUP2 PUSH20 0xFFFFFFFFFFFFFFFFFFFFFFFFFFFFFFFFFFFFFFFF AND PUSH32 0x8BE0079C531659141344CD1FD0A4F28419497F9722A3DAAFE3B4186F6B6457E0 PUSH1 0x40 MLOAD PUSH1 0x40 MLOAD DUP1 SWAP2 SUB SWAP1 LOG3 POP POP JUMP JUMPDEST PUSH1 0x80 MLOAD PUSH1 0x60 SHR PUSH2 0xF9A PUSH2 0x1CB PUSH1 0x0 CODECOPY PUSH1 0x0 DUP2 DUP2 PUSH2 0x36E ADD MSTORE PUSH2 0x5AD ADD MSTORE PUSH2 0xF9A PUSH1 0x0 RETURN INVALID PUSH1 0x80 PUSH1 0x40 MSTORE PUSH1 0x4 CALLDATASIZE LT PUSH2 0xA7 JUMPI PUSH1 0x0 CALLDATALOAD PUSH1 0xE0 SHR DUP1 PUSH4 0x8DC36436 GT PUSH2 0x64 JUMPI DUP1 PUSH4 0x8DC36436 EQ PUSH2 0x18B JUMPI DUP1 PUSH4 0xA5E29EA4 EQ PUSH2 0x1A2 JUMPI DUP1 PUSH4 0xC6BC5182 EQ PUSH2 0x1CB JUMPI DUP1 PUSH4 0xDDA81E9A EQ PUSH2 0x1F6 JUMPI DUP1 PUSH4 0xF2FDE38B EQ PUSH2 0x21F JUMPI DUP1 PUSH4 0xF56E9C66 EQ PUSH2 0x248 JUMPI PUSH2 0xA7 JUMP JUMPDEST DUP1 PUSH4 0x8551A53 EQ PUSH2 0xAC JUMPI DUP1 PUSH4 0x424DFA4F EQ PUSH2 0xD7 JUMPI DUP1 PUSH4 0x473CA96C EQ PUSH2 0x114 JUMPI DUP1 PUSH4 0x47CCCA02 EQ PUSH2 0x11E JUMPI DUP1 PUSH4 0x715018A6 EQ PUSH2 0x149 JUMPI DUP1 PUSH4 0x8DA5CB5B EQ PUSH2 0x160 JUMPI JUMPDEST PUSH1 0x0 DUP1 REVERT JUMPDEST CALLVALUE DUP1 ISZERO PUSH2 0xB8 JUMPI PUSH1 0x0 DUP1 REVERT JUMPDEST POP PUSH2 0xC1 PUSH2 0x271 JUMP JUMPDEST PUSH1 0x40 MLOAD PUSH2 0xCE SWAP2 SWAP1 PUSH2 0xC1F JUMP JUMPDEST PUSH1 0x40 MLOAD DUP1 SWAP2 SUB SWAP1 RETURN JUMPDEST CALLVALUE DUP1 ISZERO PUSH2 0xE3 JUMPI PUSH1 0x0 DUP1 REVERT JUMPDEST POP PUSH2 0xFE PUSH1 0x4 DUP1 CALLDATASIZE SUB DUP2 ADD SWAP1 PUSH2 0xF9 SWAP2 SWAP1 PUSH2 0xAB7 JUMP JUMPDEST PUSH2 0x297 JUMP JUMPDEST PUSH1 0x40 MLOAD PUSH2 0x10B SWAP2 SWAP1 PUSH2 0xCC3 JUMP JUMPDEST PUSH1 0x40 MLOAD DUP1 SWAP2 SUB SWAP1 RETURN JUMPDEST PUSH2 0x11C PUSH2 0x2D9 JUMP JUMPDEST STOP JUMPDEST CALLVALUE DUP1 ISZERO PUSH2 0x12A JUMPI PUSH1 0x0 DUP1 REVERT JUMPDEST POP PUSH2 0x133 PUSH2 0x41D JUMP JUMPDEST PUSH1 0x40 MLOAD PUSH2 0x140 SWAP2 SWAP1 PUSH2 0xCDE JUMP JUMPDEST PUSH1 0x40 MLOAD DUP1 SWAP2 SUB SWAP1 RETURN JUMPDEST CALLVALUE DUP1 ISZERO PUSH2 0x155 JUMPI PUSH1 0x0 DUP1 REVERT JUMPDEST POP PUSH2 0x15E PUSH2 0x443 JUMP JUMPDEST STOP JUMPDEST CALLVALUE DUP1 ISZERO PUSH2 0x16C JUMPI PUSH1 0x0 DUP1 REVERT JUMPDEST POP PUSH2 0x175 PUSH2 0x4CB JUMP JUMPDEST PUSH1 0x40 MLOAD PUSH2 0x182 SWAP2 SWAP1 PUSH2 0xC04 JUMP JUMPDEST PUSH1 0x40 MLOAD DUP1 SWAP2 SUB SWAP1 RETURN JUMPDEST CALLVALUE DUP1 ISZERO PUSH2 0x197 JUMPI PUSH1 0x0 DUP1 REVERT JUMPDEST POP PUSH2 0x1A0 PUSH2 0x4F4 JUMP JUMPDEST STOP JUMPDEST CALLVALUE DUP1 ISZERO PUSH2 0x1AE JUMPI PUSH1 0x0 DUP1 REVERT JUMPDEST POP PUSH2 0x1C9 PUSH1 0x4 DUP1 CALLDATASIZE SUB DUP2 ADD SWAP1 PUSH2 0x1C4 SWAP2 SWAP1 PUSH2 0xAE4 JUMP JUMPDEST PUSH2 0x5AB JUMP JUMPDEST STOP JUMPDEST CALLVALUE DUP1 ISZERO PUSH2 0x1D7 JUMPI PUSH1 0x0 DUP1 REVERT JUMPDEST POP PUSH2 0x1E0 PUSH2 0x65E JUMP JUMPDEST PUSH1 0x40 MLOAD PUSH2 0x1ED SWAP2 SWAP1 PUSH2 0xD39 JUMP JUMPDEST PUSH1 0x40 MLOAD DUP1 SWAP2 SUB SWAP1 RETURN JUMPDEST CALLVALUE DUP1 ISZERO PUSH2 0x202 JUMPI PUSH1 0x0 DUP1 REVERT JUMPDEST POP PUSH2 0x21D PUSH1 0x4 DUP1 CALLDATASIZE SUB DUP2 ADD SWAP1 PUSH2 0x218 SWAP2 SWAP1 PUSH2 0xB11 JUMP JUMPDEST PUSH2 0x664 JUMP JUMPDEST STOP JUMPDEST CALLVALUE DUP1 ISZERO PUSH2 0x22B JUMPI PUSH1 0x0 DUP1 REVERT JUMPDEST POP PUSH2 0x246 PUSH1 0x4 DUP1 CALLDATASIZE SUB DUP2 ADD SWAP1 PUSH2 0x241 SWAP2 SWAP1 PUSH2 0xA5D JUMP JUMPDEST PUSH2 0x6E5 JUMP JUMPDEST STOP JUMPDEST CALLVALUE DUP1 ISZERO PUSH2 0x254 JUMPI PUSH1 0x0 DUP1 REVERT JUMPDEST POP PUSH2 0x26F PUSH1 0x4 DUP1 CALLDATASIZE SUB DUP2 ADD SWAP1 PUSH2 0x26A SWAP2 SWAP1 PUSH2 0xA5D JUMP JUMPDEST PUSH2 0x7DD JUMP JUMPDEST STOP JUMPDEST PUSH1 0x5 PUSH1 0x0 SWAP1 SLOAD SWAP1 PUSH2 0x100 EXP SWAP1 DIV PUSH20 0xFFFFFFFFFFFFFFFFFFFFFFFFFFFFFFFFFFFFFFFF AND DUP2 JUMP JUMPDEST PUSH1 0x0 DUP2 PUSH1 0x40 ADD MLOAD TIMESTAMP LT PUSH2 0x2BE JUMPI PUSH1 0x1 DUP3 PUSH1 0x60 ADD SWAP1 ISZERO ISZERO SWAP1 DUP2 ISZERO ISZERO DUP2 MSTORE POP POP PUSH1 0x1 SWAP1 POP PUSH2 0x2D4 JUMP JUMPDEST PUSH1 0x0 DUP3 PUSH1 0x60 ADD SWAP1 ISZERO ISZERO SWAP1 DUP2 ISZERO ISZERO DUP2 MSTORE POP POP PUSH1 0x0 SWAP1 POP JUMPDEST SWAP2 SWAP1 POP JUMP JUMPDEST PUSH1 0x3 PUSH1 0x0 SWAP1 SLOAD SWAP1 PUSH2 0x100 EXP SWAP1 DIV PUSH20 0xFFFFFFFFFFFFFFFFFFFFFFFFFFFFFFFFFFFFFFFF AND PUSH20 0xFFFFFFFFFFFFFFFFFFFFFFFFFFFFFFFFFFFFFFFF AND PUSH4 0x42842E0E ADDRESS CALLER PUSH1 0x4 SLOAD PUSH1 0x40 MLOAD DUP5 PUSH4 0xFFFFFFFF AND PUSH1 0xE0 SHL DUP2 MSTORE PUSH1 0x4 ADD PUSH2 0x33A SWAP4 SWAP3 SWAP2 SWAP1 PUSH2 0xC3A JUMP JUMPDEST PUSH1 0x0 PUSH1 0x40 MLOAD DUP1 DUP4 SUB DUP2 PUSH1 0x0 DUP8 DUP1 EXTCODESIZE ISZERO DUP1 ISZERO PUSH2 0x354 JUMPI PUSH1 0x0 DUP1 REVERT JUMPDEST POP GAS CALL ISZERO DUP1 ISZERO PUSH2 0x368 JUMPI RETURNDATASIZE PUSH1 0x0 DUP1 RETURNDATACOPY RETURNDATASIZE PUSH1 0x0 REVERT JUMPDEST POP POP POP POP PUSH32 0x0 PUSH20 0xFFFFFFFFFFFFFFFFFFFFFFFFFFFFFFFFFFFFFFFF AND PUSH4 0xA9059CBB CALLER PUSH1 0xA PUSH1 0x40 MLOAD DUP4 PUSH4 0xFFFFFFFF AND PUSH1 0xE0 SHL DUP2 MSTORE PUSH1 0x4 ADD PUSH2 0x3C8 SWAP3 SWAP2 SWAP1 PUSH2 0xC71 JUMP JUMPDEST PUSH1 0x20 PUSH1 0x40 MLOAD DUP1 DUP4 SUB DUP2 PUSH1 0x0 DUP8 DUP1 EXTCODESIZE ISZERO DUP1 ISZERO PUSH2 0x3E2 JUMPI PUSH1 0x0 DUP1 REVERT JUMPDEST POP GAS CALL ISZERO DUP1 ISZERO PUSH2 0x3F6 JUMPI RETURNDATASIZE PUSH1 0x0 DUP1 RETURNDATACOPY RETURNDATASIZE PUSH1 0x0 REVERT JUMPDEST POP POP POP POP PUSH1 0x40 MLOAD RETURNDATASIZE PUSH1 0x1F NOT PUSH1 0x1F DUP3 ADD AND DUP3 ADD DUP1 PUSH1 0x40 MSTORE POP DUP2 ADD SWAP1 PUSH2 0x41A SWAP2 SWAP1 PUSH2 0xA8A JUMP JUMPDEST POP JUMP JUMPDEST PUSH1 0x3 PUSH1 0x0 SWAP1 SLOAD SWAP1 PUSH2 0x100 EXP SWAP1 DIV PUSH20 0xFFFFFFFFFFFFFFFFFFFFFFFFFFFFFFFFFFFFFFFF AND DUP2 JUMP JUMPDEST PUSH2 0x44B PUSH2 0x89D JUMP JUMPDEST PUSH20 0xFFFFFFFFFFFFFFFFFFFFFFFFFFFFFFFFFFFFFFFF AND PUSH2 0x469 PUSH2 0x4CB JUMP JUMPDEST PUSH20 0xFFFFFFFFFFFFFFFFFFFFFFFFFFFFFFFFFFFFFFFF AND EQ PUSH2 0x4BF JUMPI PUSH1 0x40 MLOAD PUSH32 0x8C379A000000000000000000000000000000000000000000000000000000000 DUP2 MSTORE PUSH1 0x4 ADD PUSH2 0x4B6 SWAP1 PUSH2 0xD19 JUMP JUMPDEST PUSH1 0x40 MLOAD DUP1 SWAP2 SUB SWAP1 REVERT JUMPDEST PUSH2 0x4C9 PUSH1 0x0 PUSH2 0x8A5 JUMP JUMPDEST JUMP JUMPDEST PUSH1 0x0 DUP1 PUSH1 0x0 SWAP1 SLOAD SWAP1 PUSH2 0x100 EXP SWAP1 DIV PUSH20 0xFFFFFFFFFFFFFFFFFFFFFFFFFFFFFFFFFFFFFFFF AND SWAP1 POP SWAP1 JUMP JUMPDEST PUSH1 0x0 PUSH32 0xFFFFFFFFFFFFFFFFFFFFFFFFFFFFFFFFFFFFFFFFFFFFFFFFFFFFFFFFFFFFFFFF SWAP1 POP PUSH1 0x3 PUSH1 0x0 SWAP1 SLOAD SWAP1 PUSH2 0x100 EXP SWAP1 DIV PUSH20 0xFFFFFFFFFFFFFFFFFFFFFFFFFFFFFFFFFFFFFFFF AND PUSH20 0xFFFFFFFFFFFFFFFFFFFFFFFFFFFFFFFFFFFFFFFF AND PUSH4 0x95EA7B3 ADDRESS DUP4 PUSH1 0x40 MLOAD DUP4 PUSH4 0xFFFFFFFF AND PUSH1 0xE0 SHL DUP2 MSTORE PUSH1 0x4 ADD PUSH2 0x576 SWAP3 SWAP2 SWAP1 PUSH2 0xC9A JUMP JUMPDEST PUSH1 0x0 PUSH1 0x40 MLOAD DUP1 DUP4 SUB DUP2 PUSH1 0x0 DUP8 DUP1 EXTCODESIZE ISZERO DUP1 ISZERO PUSH2 0x590 JUMPI PUSH1 0x0 DUP1 REVERT JUMPDEST POP GAS CALL ISZERO DUP1 ISZERO PUSH2 0x5A4 JUMPI RETURNDATASIZE PUSH1 0x0 DUP1 RETURNDATACOPY RETURNDATASIZE PUSH1 0x0 REVERT JUMPDEST POP POP POP POP POP JUMP JUMPDEST PUSH32 0x0 PUSH20 0xFFFFFFFFFFFFFFFFFFFFFFFFFFFFFFFFFFFFFFFF AND PUSH4 0x23B872DD CALLER ADDRESS DUP5 PUSH1 0x40 MLOAD DUP5 PUSH4 0xFFFFFFFF AND PUSH1 0xE0 SHL DUP2 MSTORE PUSH1 0x4 ADD PUSH2 0x608 SWAP4 SWAP3 SWAP2 SWAP1 PUSH2 0xC3A JUMP JUMPDEST PUSH1 0x20 PUSH1 0x40 MLOAD DUP1 DUP4 SUB DUP2 PUSH1 0x0 DUP8 DUP1 EXTCODESIZE ISZERO DUP1 ISZERO PUSH2 0x622 JUMPI PUSH1 0x0 DUP1 REVERT JUMPDEST POP GAS CALL ISZERO DUP1 ISZERO PUSH2 0x636 JUMPI RETURNDATASIZE PUSH1 0x0 DUP1 RETURNDATACOPY RETURNDATASIZE PUSH1 0x0 REVERT JUMPDEST POP POP POP POP PUSH1 0x40 MLOAD RETURNDATASIZE PUSH1 0x1F NOT PUSH1 0x1F DUP3 ADD AND DUP3 ADD DUP1 PUSH1 0x40 MSTORE POP DUP2 ADD SWAP1 PUSH2 0x65A SWAP2 SWAP1 PUSH2 0xA8A JUMP JUMPDEST POP POP JUMP JUMPDEST PUSH1 0x4 SLOAD DUP2 JUMP JUMPDEST PUSH2 0x66C PUSH2 0x89D JUMP JUMPDEST PUSH20 0xFFFFFFFFFFFFFFFFFFFFFFFFFFFFFFFFFFFFFFFF AND PUSH2 0x68A PUSH2 0x4CB JUMP JUMPDEST PUSH20 0xFFFFFFFFFFFFFFFFFFFFFFFFFFFFFFFFFFFFFFFF AND EQ PUSH2 0x6E0 JUMPI PUSH1 0x40 MLOAD PUSH32 0x8C379A000000000000000000000000000000000000000000000000000000000 DUP2 MSTORE PUSH1 0x4 ADD PUSH2 0x6D7 SWAP1 PUSH2 0xD19 JUMP JUMPDEST PUSH1 0x40 MLOAD DUP1 SWAP2 SUB SWAP1 REVERT JUMPDEST POP POP POP JUMP JUMPDEST PUSH2 0x6ED PUSH2 0x89D JUMP JUMPDEST PUSH20 0xFFFFFFFFFFFFFFFFFFFFFFFFFFFFFFFFFFFFFFFF AND PUSH2 0x70B PUSH2 0x4CB JUMP JUMPDEST PUSH20 0xFFFFFFFFFFFFFFFFFFFFFFFFFFFFFFFFFFFFFFFF AND EQ PUSH2 0x761 JUMPI PUSH1 0x40 MLOAD PUSH32 0x8C379A000000000000000000000000000000000000000000000000000000000 DUP2 MSTORE PUSH1 0x4 ADD PUSH2 0x758 SWAP1 PUSH2 0xD19 JUMP JUMPDEST PUSH1 0x40 MLOAD DUP1 SWAP2 SUB SWAP1 REVERT JUMPDEST PUSH1 0x0 PUSH20 0xFFFFFFFFFFFFFFFFFFFFFFFFFFFFFFFFFFFFFFFF AND DUP2 PUSH20 0xFFFFFFFFFFFFFFFFFFFFFFFFFFFFFFFFFFFFFFFF AND EQ ISZERO PUSH2 0x7D1 JUMPI PUSH1 0x40 MLOAD PUSH32 0x8C379A000000000000000000000000000000000000000000000000000000000 DUP2 MSTORE PUSH1 0x4 ADD PUSH2 0x7C8 SWAP1 PUSH2 0xCF9 JUMP JUMPDEST PUSH1 0x40 MLOAD DUP1 SWAP2 SUB SWAP1 REVERT JUMPDEST PUSH2 0x7DA DUP2 PUSH2 0x8A5 JUMP JUMPDEST POP JUMP JUMPDEST PUSH2 0x7E5 PUSH2 0x89D JUMP JUMPDEST PUSH20 0xFFFFFFFFFFFFFFFFFFFFFFFFFFFFFFFFFFFFFFFF AND PUSH2 0x803 PUSH2 0x4CB JUMP JUMPDEST PUSH20 0xFFFFFFFFFFFFFFFFFFFFFFFFFFFFFFFFFFFFFFFF AND EQ PUSH2 0x859 JUMPI PUSH1 0x40 MLOAD PUSH32 0x8C379A000000000000000000000000000000000000000000000000000000000 DUP2 MSTORE PUSH1 0x4 ADD PUSH2 0x850 SWAP1 PUSH2 0xD19 JUMP JUMPDEST PUSH1 0x40 MLOAD DUP1 SWAP2 SUB SWAP1 REVERT JUMPDEST DUP1 PUSH1 0x1 PUSH1 0x0 PUSH2 0x100 EXP DUP2 SLOAD DUP2 PUSH20 0xFFFFFFFFFFFFFFFFFFFFFFFFFFFFFFFFFFFFFFFF MUL NOT AND SWAP1 DUP4 PUSH20 0xFFFFFFFFFFFFFFFFFFFFFFFFFFFFFFFFFFFFFFFF AND MUL OR SWAP1 SSTORE POP POP JUMP JUMPDEST PUSH1 0x0 CALLER SWAP1 POP SWAP1 JUMP JUMPDEST PUSH1 0x0 DUP1 PUSH1 0x0 SWAP1 SLOAD SWAP1 PUSH2 0x100 EXP SWAP1 DIV PUSH20 0xFFFFFFFFFFFFFFFFFFFFFFFFFFFFFFFFFFFFFFFF AND SWAP1 POP DUP2 PUSH1 0x0 DUP1 PUSH2 0x100 EXP DUP2 SLOAD DUP2 PUSH20 0xFFFFFFFFFFFFFFFFFFFFFFFFFFFFFFFFFFFFFFFF MUL NOT AND SWAP1 DUP4 PUSH20 0xFFFFFFFFFFFFFFFFFFFFFFFFFFFFFFFFFFFFFFFF AND MUL OR SWAP1 SSTORE POP DUP2 PUSH20 0xFFFFFFFFFFFFFFFFFFFFFFFFFFFFFFFFFFFFFFFF AND DUP2 PUSH20 0xFFFFFFFFFFFFFFFFFFFFFFFFFFFFFFFFFFFFFFFF AND PUSH32 0x8BE0079C531659141344CD1FD0A4F28419497F9722A3DAAFE3B4186F6B6457E0 PUSH1 0x40 MLOAD PUSH1 0x40 MLOAD DUP1 SWAP2 SUB SWAP1 LOG3 POP POP JUMP JUMPDEST PUSH1 0x0 DUP2 CALLDATALOAD SWAP1 POP PUSH2 0x978 DUP2 PUSH2 0xF1F JUMP JUMPDEST SWAP3 SWAP2 POP POP JUMP JUMPDEST PUSH1 0x0 DUP2 CALLDATALOAD SWAP1 POP PUSH2 0x98D DUP2 PUSH2 0xF36 JUMP JUMPDEST SWAP3 SWAP2 POP POP JUMP JUMPDEST PUSH1 0x0 DUP2 MLOAD SWAP1 POP PUSH2 0x9A2 DUP2 PUSH2 0xF36 JUMP JUMPDEST SWAP3 SWAP2 POP POP JUMP JUMPDEST PUSH1 0x0 PUSH1 0xC0 DUP3 DUP5 SUB SLT ISZERO PUSH2 0x9BE JUMPI PUSH2 0x9BD PUSH2 0xE8C JUMP JUMPDEST JUMPDEST PUSH2 0x9C8 PUSH1 0xC0 PUSH2 0xD54 JUMP JUMPDEST SWAP1 POP PUSH1 0x0 PUSH2 0x9D8 DUP5 DUP3 DUP6 ADD PUSH2 0xA48 JUMP JUMPDEST PUSH1 0x0 DUP4 ADD MSTORE POP PUSH1 0x20 PUSH2 0x9EC DUP5 DUP3 DUP6 ADD PUSH2 0xA48 JUMP JUMPDEST PUSH1 0x20 DUP4 ADD MSTORE POP PUSH1 0x40 PUSH2 0xA00 DUP5 DUP3 DUP6 ADD PUSH2 0xA48 JUMP JUMPDEST PUSH1 0x40 DUP4 ADD MSTORE POP PUSH1 0x60 PUSH2 0xA14 DUP5 DUP3 DUP6 ADD PUSH2 0x97E JUMP JUMPDEST PUSH1 0x60 DUP4 ADD MSTORE POP PUSH1 0x80 PUSH2 0xA28 DUP5 DUP3 DUP6 ADD PUSH2 0x969 JUMP JUMPDEST PUSH1 0x80 DUP4 ADD MSTORE POP PUSH1 0xA0 PUSH2 0xA3C DUP5 DUP3 DUP6 ADD PUSH2 0xA48 JUMP JUMPDEST PUSH1 0xA0 DUP4 ADD MSTORE POP SWAP3 SWAP2 POP POP JUMP JUMPDEST PUSH1 0x0 DUP2 CALLDATALOAD SWAP1 POP PUSH2 0xA57 DUP2 PUSH2 0xF4D JUMP JUMPDEST SWAP3 SWAP2 POP POP JUMP JUMPDEST PUSH1 0x0 PUSH1 0x20 DUP3 DUP5 SUB SLT ISZERO PUSH2 0xA73 JUMPI PUSH2 0xA72 PUSH2 0xE91 JUMP JUMPDEST JUMPDEST PUSH1 0x0 PUSH2 0xA81 DUP5 DUP3 DUP6 ADD PUSH2 0x969 JUMP JUMPDEST SWAP2 POP POP SWAP3 SWAP2 POP POP JUMP JUMPDEST PUSH1 0x0 PUSH1 0x20 DUP3 DUP5 SUB SLT ISZERO PUSH2 0xAA0 JUMPI PUSH2 0xA9F PUSH2 0xE91 JUMP JUMPDEST JUMPDEST PUSH1 0x0 PUSH2 0xAAE DUP5 DUP3 DUP6 ADD PUSH2 0x993 JUMP JUMPDEST SWAP2 POP POP SWAP3 SWAP2 POP POP JUMP JUMPDEST PUSH1 0x0 PUSH1 0xC0 DUP3 DUP5 SUB SLT ISZERO PUSH2 0xACD JUMPI PUSH2 0xACC PUSH2 0xE91 JUMP JUMPDEST JUMPDEST PUSH1 0x0 PUSH2 0xADB DUP5 DUP3 DUP6 ADD PUSH2 0x9A8 JUMP JUMPDEST SWAP2 POP POP SWAP3 SWAP2 POP POP JUMP JUMPDEST PUSH1 0x0 PUSH1 0x20 DUP3 DUP5 SUB SLT ISZERO PUSH2 0xAFA JUMPI PUSH2 0xAF9 PUSH2 0xE91 JUMP JUMPDEST JUMPDEST PUSH1 0x0 PUSH2 0xB08 DUP5 DUP3 DUP6 ADD PUSH2 0xA48 JUMP JUMPDEST SWAP2 POP POP SWAP3 SWAP2 POP POP JUMP JUMPDEST PUSH1 0x0 DUP1 PUSH1 0x0 PUSH1 0x60 DUP5 DUP7 SUB SLT ISZERO PUSH2 0xB2A JUMPI PUSH2 0xB29 PUSH2 0xE91 JUMP JUMPDEST JUMPDEST PUSH1 0x0 PUSH2 0xB38 DUP7 DUP3 DUP8 ADD PUSH2 0xA48 JUMP JUMPDEST SWAP4 POP POP PUSH1 0x20 PUSH2 0xB49 DUP7 DUP3 DUP8 ADD PUSH2 0xA48 JUMP JUMPDEST SWAP3 POP POP PUSH1 0x40 PUSH2 0xB5A DUP7 DUP3 DUP8 ADD PUSH2 0xA48 JUMP JUMPDEST SWAP2 POP POP SWAP3 POP SWAP3 POP SWAP3 JUMP JUMPDEST PUSH2 0xB6D DUP2 PUSH2 0xD9C JUMP JUMPDEST DUP3 MSTORE POP POP JUMP JUMPDEST PUSH2 0xB7C DUP2 PUSH2 0xD8A JUMP JUMPDEST DUP3 MSTORE POP POP JUMP JUMPDEST PUSH2 0xB8B DUP2 PUSH2 0xDAE JUMP JUMPDEST DUP3 MSTORE POP POP JUMP JUMPDEST PUSH2 0xB9A DUP2 PUSH2 0xDE4 JUMP JUMPDEST DUP3 MSTORE POP POP JUMP JUMPDEST PUSH2 0xBA9 DUP2 PUSH2 0xDF6 JUMP JUMPDEST DUP3 MSTORE POP POP JUMP JUMPDEST PUSH1 0x0 PUSH2 0xBBC PUSH1 0x26 DUP4 PUSH2 0xD79 JUMP JUMPDEST SWAP2 POP PUSH2 0xBC7 DUP3 PUSH2 0xEA7 JUMP JUMPDEST PUSH1 0x40 DUP3 ADD SWAP1 POP SWAP2 SWAP1 POP JUMP JUMPDEST PUSH1 0x0 PUSH2 0xBDF PUSH1 0x20 DUP4 PUSH2 0xD79 JUMP JUMPDEST SWAP2 POP PUSH2 0xBEA DUP3 PUSH2 0xEF6 JUMP JUMPDEST PUSH1 0x20 DUP3 ADD SWAP1 POP SWAP2 SWAP1 POP JUMP JUMPDEST PUSH2 0xBFE DUP2 PUSH2 0xDDA JUMP JUMPDEST DUP3 MSTORE POP POP JUMP JUMPDEST PUSH1 0x0 PUSH1 0x20 DUP3 ADD SWAP1 POP PUSH2 0xC19 PUSH1 0x0 DUP4 ADD DUP5 PUSH2 0xB73 JUMP JUMPDEST SWAP3 SWAP2 POP POP JUMP JUMPDEST PUSH1 0x0 PUSH1 0x20 DUP3 ADD SWAP1 POP PUSH2 0xC34 PUSH1 0x0 DUP4 ADD DUP5 PUSH2 0xB64 JUMP JUMPDEST SWAP3 SWAP2 POP POP JUMP JUMPDEST PUSH1 0x0 PUSH1 0x60 DUP3 ADD SWAP1 POP PUSH2 0xC4F PUSH1 0x0 DUP4 ADD DUP7 PUSH2 0xB73 JUMP JUMPDEST PUSH2 0xC5C PUSH1 0x20 DUP4 ADD DUP6 PUSH2 0xB73 JUMP JUMPDEST PUSH2 0xC69 PUSH1 0x40 DUP4 ADD DUP5 PUSH2 0xBF5 JUMP JUMPDEST SWAP5 SWAP4 POP POP POP POP JUMP JUMPDEST PUSH1 0x0 PUSH1 0x40 DUP3 ADD SWAP1 POP PUSH2 0xC86 PUSH1 0x0 DUP4 ADD DUP6 PUSH2 0xB73 JUMP JUMPDEST PUSH2 0xC93 PUSH1 0x20 DUP4 ADD DUP5 PUSH2 0xBA0 JUMP JUMPDEST SWAP4 SWAP3 POP POP POP JUMP JUMPDEST PUSH1 0x0 PUSH1 0x40 DUP3 ADD SWAP1 POP PUSH2 0xCAF PUSH1 0x0 DUP4 ADD DUP6 PUSH2 0xB73 JUMP JUMPDEST PUSH2 0xCBC PUSH1 0x20 DUP4 ADD DUP5 PUSH2 0xBF5 JUMP JUMPDEST SWAP4 SWAP3 POP POP POP JUMP JUMPDEST PUSH1 0x0 PUSH1 0x20 DUP3 ADD SWAP1 POP PUSH2 0xCD8 PUSH1 0x0 DUP4 ADD DUP5 PUSH2 0xB82 JUMP JUMPDEST SWAP3 SWAP2 POP POP JUMP JUMPDEST PUSH1 0x0 PUSH1 0x20 DUP3 ADD SWAP1 POP PUSH2 0xCF3 PUSH1 0x0 DUP4 ADD DUP5 PUSH2 0xB91 JUMP JUMPDEST SWAP3 SWAP2 POP POP JUMP JUMPDEST PUSH1 0x0 PUSH1 0x20 DUP3 ADD SWAP1 POP DUP2 DUP2 SUB PUSH1 0x0 DUP4 ADD MSTORE PUSH2 0xD12 DUP2 PUSH2 0xBAF JUMP JUMPDEST SWAP1 POP SWAP2 SWAP1 POP JUMP JUMPDEST PUSH1 0x0 PUSH1 0x20 DUP3 ADD SWAP1 POP DUP2 DUP2 SUB PUSH1 0x0 DUP4 ADD MSTORE PUSH2 0xD32 DUP2 PUSH2 0xBD2 JUMP JUMPDEST SWAP1 POP SWAP2 SWAP1 POP JUMP JUMPDEST PUSH1 0x0 PUSH1 0x20 DUP3 ADD SWAP1 POP PUSH2 0xD4E PUSH1 0x0 DUP4 ADD DUP5 PUSH2 0xBF5 JUMP JUMPDEST SWAP3 SWAP2 POP POP JUMP JUMPDEST PUSH1 0x0 PUSH2 0xD5E PUSH2 0xD6F JUMP JUMPDEST SWAP1 POP PUSH2 0xD6A DUP3 DUP3 PUSH2 0xE2C JUMP JUMPDEST SWAP2 SWAP1 POP JUMP JUMPDEST PUSH1 0x0 PUSH1 0x40 MLOAD SWAP1 POP SWAP1 JUMP JUMPDEST PUSH1 0x0 DUP3 DUP3 MSTORE PUSH1 0x20 DUP3 ADD SWAP1 POP SWAP3 SWAP2 POP POP JUMP JUMPDEST PUSH1 0x0 PUSH2 0xD95 DUP3 PUSH2 0xDBA JUMP JUMPDEST SWAP1 POP SWAP2 SWAP1 POP JUMP JUMPDEST PUSH1 0x0 PUSH2 0xDA7 DUP3 PUSH2 0xDBA JUMP JUMPDEST SWAP1 POP SWAP2 SWAP1 POP JUMP JUMPDEST PUSH1 0x0 DUP2 ISZERO ISZERO SWAP1 POP SWAP2 SWAP1 POP JUMP JUMPDEST PUSH1 0x0 PUSH20 0xFFFFFFFFFFFFFFFFFFFFFFFFFFFFFFFFFFFFFFFF DUP3 AND SWAP1 POP SWAP2 SWAP1 POP JUMP JUMPDEST PUSH1 0x0 DUP2 SWAP1 POP SWAP2 SWAP1 POP JUMP JUMPDEST PUSH1 0x0 PUSH2 0xDEF DUP3 PUSH2 0xE08 JUMP JUMPDEST SWAP1 POP SWAP2 SWAP1 POP JUMP JUMPDEST PUSH1 0x0 PUSH2 0xE01 DUP3 PUSH2 0xDDA JUMP JUMPDEST SWAP1 POP SWAP2 SWAP1 POP JUMP JUMPDEST PUSH1 0x0 PUSH2 0xE13 DUP3 PUSH2 0xE1A JUMP JUMPDEST SWAP1 POP SWAP2 SWAP1 POP JUMP JUMPDEST PUSH1 0x0 PUSH2 0xE25 DUP3 PUSH2 0xDBA JUMP JUMPDEST SWAP1 POP SWAP2 SWAP1 POP JUMP JUMPDEST PUSH2 0xE35 DUP3 PUSH2 0xE96 JUMP JUMPDEST DUP2 ADD DUP2 DUP2 LT PUSH8 0xFFFFFFFFFFFFFFFF DUP3 GT OR ISZERO PUSH2 0xE54 JUMPI PUSH2 0xE53 PUSH2 0xE5D JUMP JUMPDEST JUMPDEST DUP1 PUSH1 0x40 MSTORE POP POP POP JUMP JUMPDEST PUSH32 0x4E487B7100000000000000000000000000000000000000000000000000000000 PUSH1 0x0 MSTORE PUSH1 0x41 PUSH1 0x4 MSTORE PUSH1 0x24 PUSH1 0x0 REVERT JUMPDEST PUSH1 0x0 DUP1 REVERT JUMPDEST PUSH1 0x0 DUP1 REVERT JUMPDEST PUSH1 0x0 PUSH1 0x1F NOT PUSH1 0x1F DUP4 ADD AND SWAP1 POP SWAP2 SWAP1 POP JUMP JUMPDEST PUSH32 0x4F776E61626C653A206E6577206F776E657220697320746865207A65726F2061 PUSH1 0x0 DUP3 ADD MSTORE PUSH32 0x6464726573730000000000000000000000000000000000000000000000000000 PUSH1 0x20 DUP3 ADD MSTORE POP JUMP JUMPDEST PUSH32 0x4F776E61626C653A2063616C6C6572206973206E6F7420746865206F776E6572 PUSH1 0x0 DUP3 ADD MSTORE POP JUMP JUMPDEST PUSH2 0xF28 DUP2 PUSH2 0xD8A JUMP JUMPDEST DUP2 EQ PUSH2 0xF33 JUMPI PUSH1 0x0 DUP1 REVERT JUMPDEST POP JUMP JUMPDEST PUSH2 0xF3F DUP2 PUSH2 0xDAE JUMP JUMPDEST DUP2 EQ PUSH2 0xF4A JUMPI PUSH1 0x0 DUP1 REVERT JUMPDEST POP JUMP JUMPDEST PUSH2 0xF56 DUP2 PUSH2 0xDDA JUMP JUMPDEST DUP2 EQ PUSH2 0xF61 JUMPI PUSH1 0x0 DUP1 REVERT JUMPDEST POP JUMP INVALID LOG2 PUSH5 0x6970667358 0x22 SLT KECCAK256 PUSH13 0xFF3E09713219B72B5C64112D84 DUP15 MSIZE 0xAC 0xD3 SELFBALANCE BYTE PUSH7 0xA5545BECA41409 SLT 0xC1 INVALID 0xD PUSH5 0x736F6C6343 STOP ADDMOD SMOD STOP CALLER "
		},
		"gasEstimates": {
			"creation": {
				"codeDepositCost": "798800",
				"executionCost": "infinite",
				"totalCost": "infinite"
			},
			"external": {
				"_TEST_approveWolvercoinSpend()": "infinite",
				"isExpired((uint256,uint256,uint256,bool,address,uint256))": "infinite",
				"nft()": "2667",
				"nftId()": "2473",
				"owner()": "2633",
				"renounceOwnership()": "30463",
				"seller()": "2515",
				"setNFT(address)": "27072",
				"startItemAuction(uint256,uint256,uint256)": "infinite",
				"testPayAuction(uint256)": "infinite",
				"transferOwnership(address)": "30811",
				"win()": "infinite"
			}
		},
		"methodIdentifiers": {
			"_TEST_approveWolvercoinSpend()": "8dc36436",
			"isExpired((uint256,uint256,uint256,bool,address,uint256))": "424dfa4f",
			"nft()": "47ccca02",
			"nftId()": "c6bc5182",
			"owner()": "8da5cb5b",
			"renounceOwnership()": "715018a6",
			"seller()": "08551a53",
			"setNFT(address)": "f56e9c66",
			"startItemAuction(uint256,uint256,uint256)": "dda81e9a",
			"testPayAuction(uint256)": "a5e29ea4",
			"transferOwnership(address)": "f2fde38b",
			"win()": "473ca96c"
		}
	},
	"abi": [
		{
			"inputs": [],
			"stateMutability": "nonpayable",
			"type": "constructor"
		},
		{
			"anonymous": false,
			"inputs": [
				{
					"indexed": true,
					"internalType": "address",
					"name": "previousOwner",
					"type": "address"
				},
				{
					"indexed": true,
					"internalType": "address",
					"name": "newOwner",
					"type": "address"
				}
			],
			"name": "OwnershipTransferred",
			"type": "event"
		},
		{
			"anonymous": false,
			"inputs": [
				{
					"indexed": false,
					"internalType": "address",
					"name": "winner",
					"type": "address"
				},
				{
					"indexed": false,
					"internalType": "uint256",
					"name": "amount",
					"type": "uint256"
				}
			],
			"name": "Win",
			"type": "event"
		},
		{
			"inputs": [],
			"name": "_TEST_approveWolvercoinSpend",
			"outputs": [],
			"stateMutability": "nonpayable",
			"type": "function"
		},
		{
			"inputs": [
				{
					"components": [
						{
							"internalType": "uint256",
							"name": "nftId",
							"type": "uint256"
						},
						{
							"internalType": "uint256",
							"name": "startTime",
							"type": "uint256"
						},
						{
							"internalType": "uint256",
							"name": "endTime",
							"type": "uint256"
						},
						{
							"internalType": "bool",
							"name": "auctionEnded",
							"type": "bool"
						},
						{
							"internalType": "address",
							"name": "highestBidder",
							"type": "address"
						},
						{
							"internalType": "uint256",
							"name": "highestBid",
							"type": "uint256"
						}
					],
					"internalType": "struct WolvercoinAuction.ClassicAuction",
					"name": "auction",
					"type": "tuple"
				}
			],
			"name": "isExpired",
			"outputs": [
				{
					"internalType": "bool",
					"name": "",
					"type": "bool"
				}
			],
			"stateMutability": "view",
			"type": "function"
		},
		{
			"inputs": [],
			"name": "nft",
			"outputs": [
				{
					"internalType": "contract IERC721",
					"name": "",
					"type": "address"
				}
			],
			"stateMutability": "view",
			"type": "function"
		},
		{
			"inputs": [],
			"name": "nftId",
			"outputs": [
				{
					"internalType": "uint256",
					"name": "",
					"type": "uint256"
				}
			],
			"stateMutability": "view",
			"type": "function"
		},
		{
			"inputs": [],
			"name": "owner",
			"outputs": [
				{
					"internalType": "address",
					"name": "",
					"type": "address"
				}
			],
			"stateMutability": "view",
			"type": "function"
		},
		{
			"inputs": [],
			"name": "renounceOwnership",
			"outputs": [],
			"stateMutability": "nonpayable",
			"type": "function"
		},
		{
			"inputs": [],
			"name": "seller",
			"outputs": [
				{
					"internalType": "address payable",
					"name": "",
					"type": "address"
				}
			],
			"stateMutability": "view",
			"type": "function"
		},
		{
			"inputs": [
				{
					"internalType": "address",
					"name": "_nft",
					"type": "address"
				}
			],
			"name": "setNFT",
			"outputs": [],
			"stateMutability": "nonpayable",
			"type": "function"
		},
		{
			"inputs": [
				{
					"internalType": "uint256",
					"name": "_nftId",
					"type": "uint256"
				},
				{
					"internalType": "uint256",
					"name": "_startTime",
					"type": "uint256"
				},
				{
					"internalType": "uint256",
					"name": "_endTime",
					"type": "uint256"
				}
			],
			"name": "startItemAuction",
			"outputs": [],
			"stateMutability": "nonpayable",
			"type": "function"
		},
		{
			"inputs": [
				{
					"internalType": "uint256",
					"name": "amount",
					"type": "uint256"
				}
			],
			"name": "testPayAuction",
			"outputs": [],
			"stateMutability": "nonpayable",
			"type": "function"
		},
		{
			"inputs": [
				{
					"internalType": "address",
					"name": "newOwner",
					"type": "address"
				}
			],
			"name": "transferOwnership",
			"outputs": [],
			"stateMutability": "nonpayable",
			"type": "function"
		},
		{
			"inputs": [],
			"name": "win",
			"outputs": [],
			"stateMutability": "payable",
			"type": "function"
		}
	]
}